0000000000000001291029019009900000000000000001234567890    00000000010000000DXC LIFE ZAMBIA   50001650/     /   TAN TOCK SENG      18333
0000000000000000123456789001700000000000000001234567890    00000000010000000DXC LIFE ZAMBIA   CONTRA            PRUDENTIAL ZAMBIA  18333
0000000000000001291029019009900000000000000001234567890    00000000010000000DXC LIFE ZAMBIA   50001650/     /   TAN TOCK SENG      18334
0000000000000000123456789001700000000000000001234567890    00000000010000000DXC LIFE ZAMBIA   CONTRA            PRUDENTIAL ZAMBIA  18334
0000000000000001291029019009900000000000000001234567890    00000000010000000DXC LIFE ZAMBIA   50001650/     /   TAN TOCK SENG      18335
0000000000000000123456789001700000000000000001234567890    00000000010000000DXC LIFE ZAMBIA   CONTRA            PRUDENTIAL ZAMBIA  18335
0000000000000001291029019009900000000000000001234567890    00000000010000000DXC LIFE ZAMBIA   50001650/     /   TAN TOCK SENG      18336
0000000000000000123456789001700000000000000001234567890    00000000010000000DXC LIFE ZAMBIA   CONTRA            PRUDENTIAL ZAMBIA  18336
0000000000000001291029019009900000000000000001234567890    00000000010000000DXC LIFE ZAMBIA   50001650/     /   TAN TOCK SENG      18337
0000000000000000123456789001700000000000000001234567890    00000000010000000DXC LIFE ZAMBIA   CONTRA            PRUDENTIAL ZAMBIA  18337